{
	"contractName": "Banking",
	"abi": [
		{
			"anonymous": false,
			"inputs": [
				{
					"indexed": false,
					"internalType": "string",
					"name": "_from",
					"type": "string"
				},
				{
					"indexed": false,
					"internalType": "uint256",
					"name": "_amount",
					"type": "uint256"
				}
			],
			"name": "Deposit",
			"type": "event"
		},
		{
			"anonymous": false,
			"inputs": [
				{
					"indexed": false,
					"internalType": "address",
					"name": "_user_address",
					"type": "address"
				},
				{
					"indexed": false,
					"internalType": "string",
					"name": "_user_name",
					"type": "string"
				}
			],
			"name": "Registered",
			"type": "event"
		},
		{
			"anonymous": false,
			"inputs": [
				{
					"indexed": false,
					"internalType": "string",
					"name": "_from",
					"type": "string"
				},
				{
					"indexed": false,
					"internalType": "string",
					"name": "_to",
					"type": "string"
				},
				{
					"indexed": false,
					"internalType": "uint256",
					"name": "_amount",
					"type": "uint256"
				}
			],
			"name": "TransferSent",
			"type": "event"
		},
		{
			"anonymous": false,
			"inputs": [
				{
					"indexed": false,
					"internalType": "address",
					"name": "_from",
					"type": "address"
				},
				{
					"indexed": false,
					"internalType": "string",
					"name": "_to",
					"type": "string"
				},
				{
					"indexed": false,
					"internalType": "uint256",
					"name": "_amount",
					"type": "uint256"
				}
			],
			"name": "Withdraw",
			"type": "event"
		},
		{
			"inputs": [],
			"name": "Owner",
			"outputs": [
				{
					"internalType": "address payable",
					"name": "",
					"type": "address"
				}
			],
			"stateMutability": "view",
			"type": "function",
			"constant": true
		},
		{
			"inputs": [
				{
					"internalType": "uint256",
					"name": "",
					"type": "uint256"
				}
			],
			"name": "all_adderss",
			"outputs": [
				{
					"internalType": "address",
					"name": "",
					"type": "address"
				}
			],
			"stateMutability": "view",
			"type": "function",
			"constant": true
		},
		{
			"inputs": [
				{
					"internalType": "contract IERC20",
					"name": "token",
					"type": "address"
				},
				{
					"internalType": "uint256",
					"name": "_amount",
					"type": "uint256"
				}
			],
			"name": "DepositERC20",
			"outputs": [],
			"stateMutability": "nonpayable",
			"type": "function"
		},
		{
			"inputs": [
				{
					"internalType": "contract IERC20",
					"name": "token",
					"type": "address"
				}
			],
			"name": "_balanceOf",
			"outputs": [
				{
					"internalType": "uint256",
					"name": "",
					"type": "uint256"
				}
			],
			"stateMutability": "view",
			"type": "function",
			"constant": true
		},
		{
			"inputs": [
				{
					"internalType": "contract IERC20",
					"name": "token",
					"type": "address"
				},
				{
					"internalType": "uint256",
					"name": "_amount",
					"type": "uint256"
				}
			],
			"name": "WithdrawERC20",
			"outputs": [],
			"stateMutability": "nonpayable",
			"type": "function"
		},
		{
			"inputs": [
				{
					"internalType": "contract IERC20",
					"name": "token",
					"type": "address"
				},
				{
					"internalType": "string",
					"name": "_to",
					"type": "string"
				},
				{
					"internalType": "uint256",
					"name": "_amount",
					"type": "uint256"
				}
			],
			"name": "TransferERC20",
			"outputs": [],
			"stateMutability": "nonpayable",
			"type": "function"
		},
		{
			"inputs": [
				{
					"internalType": "string",
					"name": "_input_name",
					"type": "string"
				}
			],
			"name": "register",
			"outputs": [
				{
					"internalType": "bool",
					"name": "",
					"type": "bool"
				}
			],
			"stateMutability": "nonpayable",
			"type": "function"
		},
		{
			"inputs": [],
			"name": "check",
			"outputs": [
				{
					"internalType": "bool",
					"name": "",
					"type": "bool"
				}
			],
			"stateMutability": "view",
			"type": "function",
			"constant": true
		},
		{
			"inputs": [],
			"name": "view_username",
			"outputs": [
				{
					"internalType": "string",
					"name": "",
					"type": "string"
				}
			],
			"stateMutability": "view",
			"type": "function",
			"constant": true
		},
		{
			"inputs": [],
			"name": "amount_view",
			"outputs": [
				{
					"internalType": "uint256",
					"name": "",
					"type": "uint256"
				}
			],
			"stateMutability": "view",
			"type": "function",
			"constant": true
		},
		{
			"inputs": [],
			"name": "balance_view",
			"outputs": [
				{
					"internalType": "uint256",
					"name": "",
					"type": "uint256"
				}
			],
			"stateMutability": "view",
			"type": "function",
			"constant": true
		}
	],
	"bytecode": "0x608060405233600160006101000a81548173ffffffffffffffffffffffffffffffffffffffff021916908373ffffffffffffffffffffffffffffffffffffffff160217905550600060035534801561005657600080fd5b50611c84806100666000396000f3fe608060405234801561001057600080fd5b50600436106100a95760003560e01c8063899e448811610071578063899e448814610154578063919840ad14610170578063b4a99a4e1461018e578063be7426ae146101ac578063cca3e832146101c8578063f2c298be146101f8576100a9565b806309732b24146100ae5780630f4dfd3e146100cc57806310658b82146100ea57806327f44e9a1461011a578063738f5bc114610136575b600080fd5b6100b6610228565b6040516100c391906116ad565b60405180910390f35b6100d46102f7565b6040516100e191906117e4565b60405180910390f35b61010460048036038101906100ff9190611350565b610304565b604051610111919061158e565b60405180910390f35b610134600480360381019061012f91906112d3565b610343565b005b61013e610608565b60405161014b91906117e4565b60405180910390f35b61016e6004803603810190610169919061126c565b61064f565b005b6101786109d9565b6040516101859190611692565b60405180910390f35b610196610a2d565b6040516101a391906115a9565b60405180910390f35b6101c660048036038101906101c191906112d3565b610a53565b005b6101e260048036038101906101dd9190611243565b610d9c565b6040516101ef91906117e4565b60405180910390f35b610212600480360381019061020d919061130f565b610e2e565b60405161021f9190611692565b60405180910390f35b6060600560003373ffffffffffffffffffffffffffffffffffffffff1673ffffffffffffffffffffffffffffffffffffffff1681526020019081526020016000208054610274906119c9565b80601f01602080910402602001604051908101604052809291908181526020018280546102a0906119c9565b80156102ed5780601f106102c2576101008083540402835291602001916102ed565b820191906000526020600020905b8154815290600101906020018083116102d057829003601f168201915b5050505050905090565b6000600280549050905090565b6002818154811061031457600080fd5b906000526020600020016000915054906101000a900473ffffffffffffffffffffffffffffffffffffffff1681565b60011515600760003373ffffffffffffffffffffffffffffffffffffffff1673ffffffffffffffffffffffffffffffffffffffff16815260200190815260200160002060009054906101000a900460ff161515146103d6576040517f08c379a00000000000000000000000000000000000000000000000000000000081526004016103cd906117a4565b60405180910390fd5b60008273ffffffffffffffffffffffffffffffffffffffff166370a08231336040518263ffffffff1660e01b8152600401610411919061158e565b60206040518083038186803b15801561042957600080fd5b505afa15801561043d573d6000803e3d6000fd5b505050506040513d601f19601f820116820180604052508101906104619190611379565b9050818110156104a6576040517f08c379a000000000000000000000000000000000000000000000000000000000815260040161049d90611764565b60405180910390fd5b8273ffffffffffffffffffffffffffffffffffffffff166323b872dd3330856040518463ffffffff1660e01b81526004016104e3939291906115c4565b602060405180830381600087803b1580156104fd57600080fd5b505af1158015610511573d6000803e3d6000fd5b505050506040513d601f19601f82011682018060405250810190610535919061121a565b5081600460003373ffffffffffffffffffffffffffffffffffffffff1673ffffffffffffffffffffffffffffffffffffffff16815260200190815260200160002060008282546105859190611891565b925050819055507f135290006f1871309577d248cf00619459a79b4a735638108a2bb080319c90d6600560003373ffffffffffffffffffffffffffffffffffffffff1673ffffffffffffffffffffffffffffffffffffffff168152602001908152602001600020836040516105fb929190611714565b60405180910390a1505050565b6000600460003373ffffffffffffffffffffffffffffffffffffffff1673ffffffffffffffffffffffffffffffffffffffff16815260200190815260200160002054905090565b8080600460003373ffffffffffffffffffffffffffffffffffffffff1673ffffffffffffffffffffffffffffffffffffffff1681526020019081526020016000205410156106d2576040517f08c379a00000000000000000000000000000000000000000000000000000000081526004016106c990611744565b60405180910390fd5b60011515600760003373ffffffffffffffffffffffffffffffffffffffff1673ffffffffffffffffffffffffffffffffffffffff16815260200190815260200160002060009054906101000a900460ff16151514610765576040517f08c379a000000000000000000000000000000000000000000000000000000000815260040161075c906117a4565b60405180910390fd5b60008473ffffffffffffffffffffffffffffffffffffffff166370a08231306040518263ffffffff1660e01b81526004016107a0919061158e565b60206040518083038186803b1580156107b857600080fd5b505afa1580156107cc573d6000803e3d6000fd5b505050506040513d601f19601f820116820180604052508101906107f09190611379565b905082811015610835576040517f08c379a000000000000000000000000000000000000000000000000000000000815260040161082c90611784565b60405180910390fd5b8473ffffffffffffffffffffffffffffffffffffffff166323b872dd306006876040516108629190611577565b908152602001604051809103902060009054906101000a900473ffffffffffffffffffffffffffffffffffffffff16866040518463ffffffff1660e01b81526004016108b0939291906115c4565b602060405180830381600087803b1580156108ca57600080fd5b505af11580156108de573d6000803e3d6000fd5b505050506040513d601f19601f82011682018060405250810190610902919061121a565b5082600460003373ffffffffffffffffffffffffffffffffffffffff1673ffffffffffffffffffffffffffffffffffffffff168152602001908152602001600020600082825461095291906118e7565b925050819055507f6ee459ce6e9de4aede556847ed47151a25233330da350a674777c7096466e13a600560003373ffffffffffffffffffffffffffffffffffffffff1673ffffffffffffffffffffffffffffffffffffffff16815260200190815260200160002085856040516109ca939291906116cf565b60405180910390a15050505050565b6000600760003373ffffffffffffffffffffffffffffffffffffffff1673ffffffffffffffffffffffffffffffffffffffff16815260200190815260200160002060009054906101000a900460ff16905090565b600160009054906101000a900473ffffffffffffffffffffffffffffffffffffffff1681565b8080600460003373ffffffffffffffffffffffffffffffffffffffff1673ffffffffffffffffffffffffffffffffffffffff168152602001908152602001600020541015610ad6576040517f08c379a0000000000000000000000000000000000000000000000000000000008152600401610acd90611744565b60405180910390fd5b60011515600760003373ffffffffffffffffffffffffffffffffffffffff1673ffffffffffffffffffffffffffffffffffffffff16815260200190815260200160002060009054906101000a900460ff16151514610b69576040517f08c379a0000000000000000000000000000000000000000000000000000000008152600401610b60906117a4565b60405180910390fd5b60008373ffffffffffffffffffffffffffffffffffffffff166370a08231306040518263ffffffff1660e01b8152600401610ba4919061158e565b60206040518083038186803b158015610bbc57600080fd5b505afa158015610bd0573d6000803e3d6000fd5b505050506040513d601f19601f82011682018060405250810190610bf49190611379565b905082811015610c39576040517f08c379a0000000000000000000000000000000000000000000000000000000008152600401610c3090611784565b60405180910390fd5b8373ffffffffffffffffffffffffffffffffffffffff1663a9059cbb33856040518363ffffffff1660e01b8152600401610c74929190611669565b602060405180830381600087803b158015610c8e57600080fd5b505af1158015610ca2573d6000803e3d6000fd5b505050506040513d601f19601f82011682018060405250810190610cc6919061121a565b5082600460003373ffffffffffffffffffffffffffffffffffffffff1673ffffffffffffffffffffffffffffffffffffffff1681526020019081526020016000206000828254610d1691906118e7565b925050819055507f901c03da5d88eb3d62ab4617e7b7d17d86db16356823a7971127d5181a842fef30600560003373ffffffffffffffffffffffffffffffffffffffff1673ffffffffffffffffffffffffffffffffffffffff16815260200190815260200160002085604051610d8e9392919061162b565b60405180910390a150505050565b60008173ffffffffffffffffffffffffffffffffffffffff166370a08231336040518263ffffffff1660e01b8152600401610dd7919061158e565b60206040518083038186803b158015610def57600080fd5b505afa158015610e03573d6000803e3d6000fd5b505050506040513d601f19601f82011682018060405250810190610e279190611379565b9050919050565b6000801515600760003373ffffffffffffffffffffffffffffffffffffffff1673ffffffffffffffffffffffffffffffffffffffff16815260200190815260200160002060009054906101000a900460ff16151514610ec2576040517f08c379a0000000000000000000000000000000000000000000000000000000008152600401610eb9906117c4565b60405180910390fd5b6002339080600181540180825580915050600190039060005260206000200160009091909190916101000a81548173ffffffffffffffffffffffffffffffffffffffff021916908373ffffffffffffffffffffffffffffffffffffffff16021790555081600560003373ffffffffffffffffffffffffffffffffffffffff1673ffffffffffffffffffffffffffffffffffffffff1681526020019081526020016000209080519060200190610f789291906110bb565b506001600760003373ffffffffffffffffffffffffffffffffffffffff1673ffffffffffffffffffffffffffffffffffffffff16815260200190815260200160002060006101000a81548160ff02191690831515021790555033600683604051610fe29190611577565b908152602001604051809103902060006101000a81548173ffffffffffffffffffffffffffffffffffffffff021916908373ffffffffffffffffffffffffffffffffffffffff1602179055507fb3eccf73f39b1c07947c780b2b39df2a1bb058b4037b0a42d0881ca1a028a132338360405161105f9291906115fb565b60405180910390a1600760003373ffffffffffffffffffffffffffffffffffffffff1673ffffffffffffffffffffffffffffffffffffffff16815260200190815260200160002060009054906101000a900460ff169050919050565b8280546110c7906119c9565b90600052602060002090601f0160209004810192826110e95760008555611130565b82601f1061110257805160ff1916838001178555611130565b82800160010185558215611130579182015b8281111561112f578251825591602001919060010190611114565b5b50905061113d9190611141565b5090565b5b8082111561115a576000816000905550600101611142565b5090565b600061117161116c84611824565b6117ff565b90508281526020810184848401111561118957600080fd5b611194848285611987565b509392505050565b6000815190506111ab81611c09565b92915050565b6000813590506111c081611c20565b92915050565b600082601f8301126111d757600080fd5b81356111e784826020860161115e565b91505092915050565b6000813590506111ff81611c37565b92915050565b60008151905061121481611c37565b92915050565b60006020828403121561122c57600080fd5b600061123a8482850161119c565b91505092915050565b60006020828403121561125557600080fd5b6000611263848285016111b1565b91505092915050565b60008060006060848603121561128157600080fd5b600061128f868287016111b1565b935050602084013567ffffffffffffffff8111156112ac57600080fd5b6112b8868287016111c6565b92505060406112c9868287016111f0565b9150509250925092565b600080604083850312156112e657600080fd5b60006112f4858286016111b1565b9250506020611305858286016111f0565b9150509250929050565b60006020828403121561132157600080fd5b600082013567ffffffffffffffff81111561133b57600080fd5b611347848285016111c6565b91505092915050565b60006020828403121561136257600080fd5b6000611370848285016111f0565b91505092915050565b60006020828403121561138b57600080fd5b600061139984828501611205565b91505092915050565b6113ab8161192d565b82525050565b6113ba8161191b565b82525050565b6113c98161193f565b82525050565b60006113da8261186a565b6113e48185611875565b93506113f4818560208601611996565b6113fd81611ab9565b840191505092915050565b60006114138261186a565b61141d8185611886565b935061142d818560208601611996565b80840191505092915050565b60008154611446816119c9565b6114508186611875565b9450600182166000811461146b576001811461147d576114b0565b60ff19831686526020860193506114b0565b61148685611855565b60005b838110156114a857815481890152600182019150602081019050611489565b808801955050505b50505092915050565b60006114c6603083611875565b91506114d182611aca565b604082019050919050565b60006114e9602883611875565b91506114f482611b19565b604082019050919050565b600061150c602d83611875565b915061151782611b68565b604082019050919050565b600061152f601a83611875565b915061153a82611bb7565b602082019050919050565b6000611552601683611875565b915061155d82611be0565b602082019050919050565b6115718161197d565b82525050565b60006115838284611408565b915081905092915050565b60006020820190506115a360008301846113b1565b92915050565b60006020820190506115be60008301846113a2565b92915050565b60006060820190506115d960008301866113b1565b6115e660208301856113b1565b6115f36040830184611568565b949350505050565b600060408201905061161060008301856113b1565b818103602083015261162281846113cf565b90509392505050565b600060608201905061164060008301866113b1565b81810360208301526116528185611439565b90506116616040830184611568565b949350505050565b600060408201905061167e60008301856113b1565b61168b6020830184611568565b9392505050565b60006020820190506116a760008301846113c0565b92915050565b600060208201905081810360008301526116c781846113cf565b905092915050565b600060608201905081810360008301526116e98186611439565b905081810360208301526116fd81856113cf565b905061170c6040830184611568565b949350505050565b6000604082019050818103600083015261172e8185611439565b905061173d6020830184611568565b9392505050565b6000602082019050818103600083015261175d816114b9565b9050919050565b6000602082019050818103600083015261177d816114dc565b9050919050565b6000602082019050818103600083015261179d816114ff565b9050919050565b600060208201905081810360008301526117bd81611522565b9050919050565b600060208201905081810360008301526117dd81611545565b9050919050565b60006020820190506117f96000830184611568565b92915050565b600061180961181a565b905061181582826119fb565b919050565b6000604051905090565b600067ffffffffffffffff82111561183f5761183e611a8a565b5b61184882611ab9565b9050602081019050919050565b60008190508160005260206000209050919050565b600081519050919050565b600082825260208201905092915050565b600081905092915050565b600061189c8261197d565b91506118a78361197d565b9250827fffffffffffffffffffffffffffffffffffffffffffffffffffffffffffffffff038211156118dc576118db611a2c565b5b828201905092915050565b60006118f28261197d565b91506118fd8361197d565b9250828210156119105761190f611a2c565b5b828203905092915050565b60006119268261195d565b9050919050565b60006119388261195d565b9050919050565b60008115159050919050565b60006119568261191b565b9050919050565b600073ffffffffffffffffffffffffffffffffffffffff82169050919050565b6000819050919050565b82818337600083830152505050565b60005b838110156119b4578082015181840152602081019050611999565b838111156119c3576000848401525b50505050565b600060028204905060018216806119e157607f821691505b602082108114156119f5576119f4611a5b565b5b50919050565b611a0482611ab9565b810181811067ffffffffffffffff82111715611a2357611a22611a8a565b5b80604052505050565b7f4e487b7100000000000000000000000000000000000000000000000000000000600052601160045260246000fd5b7f4e487b7100000000000000000000000000000000000000000000000000000000600052602260045260246000fd5b7f4e487b7100000000000000000000000000000000000000000000000000000000600052604160045260246000fd5b6000601f19601f8301169050919050565b7f596f752068617665206e6f7420656e6f756768206d6f6e657920746f2077697460008201527f6864726177202f207472616e7366657200000000000000000000000000000000602082015250565b7f5468657265206973206e6f7420656e6f756768206d6f6e657920696e20796f7560008201527f722077616c6c6574000000000000000000000000000000000000000000000000602082015250565b7f5468657265206973206e6f7420656e6f756768206d6f6e6579206c656674206960008201527f6e20746865206163636f756e7400000000000000000000000000000000000000602082015250565b7f596f7520617265206e6f74207265676973746572656420796574000000000000600082015250565b7f596f7520616c7265616479207265676973746572656400000000000000000000600082015250565b611c128161193f565b8114611c1d57600080fd5b50565b611c298161194b565b8114611c3457600080fd5b50565b611c408161197d565b8114611c4b57600080fd5b5056fea2646970667358221220bde87e46a86573c4e3aa693cd8e7822ec2e06dd75cf16824b643b561f44bdf2664736f6c63430008040033",
	"immutableReferences": {},
	"source": "pragma solidity ^0.8;\r\nimport \"@openzeppelin/contracts/token/ERC20/utils/SafeERC20.sol\";\r\n// SPDX-License-Identifier: MIT\r\ncontract Banking{\r\n    IERC20 _token;\r\n    event Registered(address _user_address , string _user_name);\r\n    event Withdraw(address _from , string _to,uint256 _amount);\r\n    event Deposit(string _from , uint256 _amount);\r\n    event TransferSent(string _from , string _to , uint256 _amount);\r\n\r\n    address payable public Owner = payable(msg.sender);\r\n\r\n    address[] public all_adderss;\r\n    uint256 _balance = 0;\r\n    mapping(address => uint256) internal account_balance;\r\n    mapping(address => string) user_name;\r\n    mapping(string => address)  user_address;\r\n    mapping(address => bool) internal status;\r\n\r\n    // modifier checkAllowance(uint amount) {\r\n    //     require(_token.allowance(msg.sender, address(this)) >= amount, \"Error\");\r\n    //     _;\r\n    // }\r\n\r\n    modifier Register_check{\r\n\r\n        require(status[msg.sender] == true , \"You are not registered yet\");\r\n        _;\r\n    }\r\n\r\n    modifier value_deposit( uint256 _value){\r\n\r\n        require(msg.value >= _value , \"You have not enough money to deposit\");\r\n        _;\r\n    }\r\n\r\n    modifier value_withdraw( uint256 _value){\r\n\r\n        require(account_balance[msg.sender] >= _value  , \"You have not enough money to withdraw / transfer\");\r\n        _;\r\n    }\r\n\r\n    function DepositERC20( IERC20 token , uint256 _amount) Register_check public {\r\n        uint256 erc20_balance = token.balanceOf(msg.sender);\r\n        require(erc20_balance >= _amount , \"There is not enough money in your wallet\");\r\n\r\n        IERC20(token).transferFrom( msg.sender , address(this) , _amount);\r\n        account_balance[msg.sender] += _amount;\r\n\r\n        emit Deposit(user_name[msg.sender], _amount);\r\n\r\n    }\r\n\r\n    function _balanceOf(IERC20 token) public view returns(uint256){\r\n\r\n        return token.balanceOf(msg.sender);\r\n\r\n    }\r\n\r\n    function WithdrawERC20( IERC20 token , uint256 _amount) value_withdraw(_amount) Register_check public {\r\n        uint256 erc20_balance = token.balanceOf(address(this));\r\n        require(erc20_balance >= _amount , \"There is not enough money left in the account\");\r\n        token.transfer( msg.sender , _amount);\r\n        account_balance[msg.sender] -= _amount;\r\n\r\n        emit Withdraw(address(this) , user_name[msg.sender] , _amount);\r\n\r\n    }\r\n\r\n    function TransferERC20( IERC20 token , string memory _to , uint256 _amount) value_withdraw(_amount) Register_check public {\r\n        uint256 erc20_balance = token.balanceOf(address(this));\r\n        require(erc20_balance >= _amount , \"There is not enough money left in the account\");\r\n\r\n        IERC20(token).transferFrom( address(this) , user_address[_to] ,  _amount);\r\n        account_balance[msg.sender] -= _amount;\r\n\r\n        emit TransferSent(user_name[msg.sender] , _to , _amount);\r\n\r\n    }\r\n\r\n    function register(string memory _input_name) public returns(bool){\r\n        require(status[msg.sender] == false , \"You already registered\");\r\n\r\n        all_adderss.push(msg.sender);\r\n        user_name[msg.sender] = _input_name;\r\n        status[msg.sender] = true;\r\n\r\n        user_address[_input_name] = msg.sender;\r\n\r\n        emit Registered(msg.sender , _input_name);\r\n\r\n    return status[msg.sender];\r\n    }\r\n\r\n    function check() public view returns(bool){\r\n\r\n        return status[msg.sender];\r\n    }\r\n\r\n    function view_username() public view returns(string memory){\r\n\r\n        return user_name[msg.sender];\r\n    }\r\n\r\n    function amount_view() public view returns(uint256){\r\n        return all_adderss.length;\r\n    }\r\n\r\n    function balance_view() public view returns (uint256){\r\n        return account_balance[msg.sender];\r\n    }\r\n\r\n}",
	"sourcePath": "C:\\Users\\User\\Desktop\\blockchain\\web-app\\contracts\\Banking.sol",
	"compiler": {
		"name": "solc",
		"version": "0.8.4+commit.c7e474f2.Emscripten.clang"
	},
	"schemaVersion": "3.4.8",
	"updatedAt": "2022-07-17T10:32:50.348Z",
	"networkType": "ethereum",
	"devdoc": {
		"kind": "dev",
		"methods": {},
		"version": 1
	},
	"userdoc": {
		"kind": "user",
		"methods": {},
		"version": 1
	}
}